{
  "_format": "hh-sol-artifact-1",
  "contractName": "ArbitrageV3",
  "sourceName": "contracts/ArbitrageV3.sol",
  "abi": [
    {
      "inputs": [
        {
          "internalType": "address",
          "name": "_balancerVault",
          "type": "address"
        },
        {
          "internalType": "address",
          "name": "_uRouter",
          "type": "address"
        },
        {
          "internalType": "address",
          "name": "_sRouter",
          "type": "address"
        }
      ],
      "stateMutability": "nonpayable",
      "type": "constructor"
    },
    {
      "inputs": [],
      "name": "balancerVault",
      "outputs": [
        {
          "internalType": "contract IVault",
          "name": "",
          "type": "address"
        }
      ],
      "stateMutability": "view",
      "type": "function"
    },
    {
      "inputs": [
        {
          "internalType": "bool",
          "name": "_startOnUniswap",
          "type": "bool"
        },
        {
          "internalType": "address",
          "name": "_token0",
          "type": "address"
        },
        {
          "internalType": "address",
          "name": "_token1",
          "type": "address"
        },
        {
          "internalType": "uint24",
          "name": "_feeTier",
          "type": "uint24"
        },
        {
          "internalType": "uint256",
          "name": "_flashAmount",
          "type": "uint256"
        },
        {
          "internalType": "uint256",
          "name": "_amountOutMinimum",
          "type": "uint256"
        }
      ],
      "name": "executeTrade",
      "outputs": [],
      "stateMutability": "nonpayable",
      "type": "function"
    },
    {
      "inputs": [],
      "name": "owner",
      "outputs": [
        {
          "internalType": "address",
          "name": "",
          "type": "address"
        }
      ],
      "stateMutability": "view",
      "type": "function"
    },
    {
      "inputs": [
        {
          "internalType": "contract IERC20[]",
          "name": "tokens",
          "type": "address[]"
        },
        {
          "internalType": "uint256[]",
          "name": "amounts",
          "type": "uint256[]"
        },
        {
          "internalType": "uint256[]",
          "name": "feeAmounts",
          "type": "uint256[]"
        },
        {
          "internalType": "bytes",
          "name": "userData",
          "type": "bytes"
        }
      ],
      "name": "receiveFlashLoan",
      "outputs": [],
      "stateMutability": "nonpayable",
      "type": "function"
    },
    {
      "inputs": [],
      "name": "sRouter",
      "outputs": [
        {
          "internalType": "contract ISwapRouter",
          "name": "",
          "type": "address"
        }
      ],
      "stateMutability": "view",
      "type": "function"
    },
    {
      "inputs": [],
      "name": "uRouter",
      "outputs": [
        {
          "internalType": "contract ISwapRouter",
          "name": "",
          "type": "address"
        }
      ],
      "stateMutability": "view",
      "type": "function"
    }
  ],
  "bytecode": "0x6101006040523480156200001257600080fd5b5060405162001c3938038062001c3983398181016040528101906200003891906200017b565b8273ffffffffffffffffffffffffffffffffffffffff1660808173ffffffffffffffffffffffffffffffffffffffff16815250508173ffffffffffffffffffffffffffffffffffffffff1660a08173ffffffffffffffffffffffffffffffffffffffff16815250508073ffffffffffffffffffffffffffffffffffffffff1660c08173ffffffffffffffffffffffffffffffffffffffff16815250503373ffffffffffffffffffffffffffffffffffffffff1660e08173ffffffffffffffffffffffffffffffffffffffff1681525050505050620001d7565b600080fd5b600073ffffffffffffffffffffffffffffffffffffffff82169050919050565b6000620001438262000116565b9050919050565b620001558162000136565b81146200016157600080fd5b50565b60008151905062000175816200014a565b92915050565b60008060006060848603121562000197576200019662000111565b5b6000620001a78682870162000164565b9350506020620001ba8682870162000164565b9250506040620001cd8682870162000164565b9150509250925092565b60805160a05160c05160e0516119e26200025760003960008181610185015281816101a901526106990152600081816101190152818161054c01526105840152600081816101610152818161051c01526105b401526000818161013d0152818161036f0152818161040b0152818161062a015261065501526119e26000f3fe608060405234801561001057600080fd5b50600436106100625760003560e01c8063017c64b014610067578063158274a5146100855780635cf39049146100a35780638da5cb5b146100c1578063e6415c59146100df578063f04f2707146100fb575b600080fd5b61006f610117565b60405161007c9190610b2a565b60405180910390f35b61008d61013b565b60405161009a9190610b66565b60405180910390f35b6100ab61015f565b6040516100b89190610b2a565b60405180910390f35b6100c9610183565b6040516100d69190610ba2565b60405180910390f35b6100f960048036038101906100f49190610ca6565b6101a7565b005b61011560048036038101906101109190611042565b610409565b005b7f000000000000000000000000000000000000000000000000000000000000000081565b7f000000000000000000000000000000000000000000000000000000000000000081565b7f000000000000000000000000000000000000000000000000000000000000000081565b7f000000000000000000000000000000000000000000000000000000000000000081565b7f000000000000000000000000000000000000000000000000000000000000000073ffffffffffffffffffffffffffffffffffffffff163373ffffffffffffffffffffffffffffffffffffffff1614610235576040517f08c379a000000000000000000000000000000000000000000000000000000000815260040161022c90611176565b60405180910390fd5b600086868686856040516020016102509594939291906111c3565b60405160208183030381529060405290506000600167ffffffffffffffff81111561027e5761027d610d49565b5b6040519080825280602002602001820160405280156102ac5781602001602082028036833780820191505090505b50905086816000815181106102c4576102c3611216565b5b602002602001019073ffffffffffffffffffffffffffffffffffffffff16908173ffffffffffffffffffffffffffffffffffffffff16815250506000600167ffffffffffffffff81111561031b5761031a610d49565b5b6040519080825280602002602001820160405280156103495781602001602082028036833780820191505090505b509050848160008151811061036157610360611216565b5b6020026020010181815250507f000000000000000000000000000000000000000000000000000000000000000073ffffffffffffffffffffffffffffffffffffffff16635c38449e308484876040518563ffffffff1660e01b81526004016103cc9493929190611452565b600060405180830381600087803b1580156103e657600080fd5b505af11580156103fa573d6000803e3d6000fd5b50505050505050505050505050565b7f000000000000000000000000000000000000000000000000000000000000000073ffffffffffffffffffffffffffffffffffffffff163373ffffffffffffffffffffffffffffffffffffffff1614610497576040517f08c379a000000000000000000000000000000000000000000000000000000000815260040161048e906114f8565b60405180910390fd5b6000836000815181106104ad576104ac611216565b5b602002602001015190506000836000815181106104cd576104cc611216565b5b60200260200101519050600081836104e59190611547565b905060008060008060008880602001905181019061050391906115f8565b945094509450945094506000851561057d5760006105457f00000000000000000000000000000000000000000000000000000000000000008787878e886106cf565b90506105757f0000000000000000000000000000000000000000000000000000000000000000868887858d6106cf565b9150506105e1565b60006105ad7f00000000000000000000000000000000000000000000000000000000000000008787878e886106cf565b90506105dd7f0000000000000000000000000000000000000000000000000000000000000000868887858d6106cf565b9150505b86811015610624576040517f08c379a000000000000000000000000000000000000000000000000000000000815260040161061b906116bf565b60405180910390fd5b61064f857f000000000000000000000000000000000000000000000000000000000000000089610801565b61067a857f000000000000000000000000000000000000000000000000000000000000000089610956565b6000878261068891906116df565b905060008111156106bf576106be867f000000000000000000000000000000000000000000000000000000000000000083610956565b5b5050505050505050505050505050565b60006106dc868885610801565b60006040518061010001604052808873ffffffffffffffffffffffffffffffffffffffff1681526020018773ffffffffffffffffffffffffffffffffffffffff1681526020018662ffffff1681526020013073ffffffffffffffffffffffffffffffffffffffff168152602001428152602001858152602001848152602001600073ffffffffffffffffffffffffffffffffffffffff1681525090508773ffffffffffffffffffffffffffffffffffffffff1663414bf389826040518263ffffffff1660e01b81526004016107b191906117e2565b6020604051808303816000875af11580156107d0573d6000803e3d6000fd5b505050506040513d601f19601f820116820180604052508101906107f491906117fe565b9150509695505050505050565b6000808473ffffffffffffffffffffffffffffffffffffffff1663095ea7b360e01b858560405160240161083692919061182b565b604051602081830303815290604052907bffffffffffffffffffffffffffffffffffffffffffffffffffffffff19166020820180517bffffffffffffffffffffffffffffffffffffffffffffffffffffffff83818316178352505050506040516108a09190611890565b6000604051808303816000865af19150503d80600081146108dd576040519150601f19603f3d011682016040523d82523d6000602084013e6108e2565b606091505b5091509150818015610910575060008151148061090f57508080602001905181019061090e91906118a7565b5b5b61094f576040517f08c379a000000000000000000000000000000000000000000000000000000000815260040161094690611920565b60405180910390fd5b5050505050565b6000808473ffffffffffffffffffffffffffffffffffffffff1663a9059cbb60e01b858560405160240161098b92919061182b565b604051602081830303815290604052907bffffffffffffffffffffffffffffffffffffffffffffffffffffffff19166020820180517bffffffffffffffffffffffffffffffffffffffffffffffffffffffff83818316178352505050506040516109f59190611890565b6000604051808303816000865af19150503d8060008114610a32576040519150601f19603f3d011682016040523d82523d6000602084013e610a37565b606091505b5091509150818015610a655750600081511480610a64575080806020019051810190610a6391906118a7565b5b5b610aa4576040517f08c379a0000000000000000000000000000000000000000000000000000000008152600401610a9b9061198c565b60405180910390fd5b5050505050565b600073ffffffffffffffffffffffffffffffffffffffff82169050919050565b6000819050919050565b6000610af0610aeb610ae684610aab565b610acb565b610aab565b9050919050565b6000610b0282610ad5565b9050919050565b6000610b1482610af7565b9050919050565b610b2481610b09565b82525050565b6000602082019050610b3f6000830184610b1b565b92915050565b6000610b5082610af7565b9050919050565b610b6081610b45565b82525050565b6000602082019050610b7b6000830184610b57565b92915050565b6000610b8c82610aab565b9050919050565b610b9c81610b81565b82525050565b6000602082019050610bb76000830184610b93565b92915050565b6000604051905090565b600080fd5b600080fd5b60008115159050919050565b610be681610bd1565b8114610bf157600080fd5b50565b600081359050610c0381610bdd565b92915050565b610c1281610b81565b8114610c1d57600080fd5b50565b600081359050610c2f81610c09565b92915050565b600062ffffff82169050919050565b610c4d81610c35565b8114610c5857600080fd5b50565b600081359050610c6a81610c44565b92915050565b6000819050919050565b610c8381610c70565b8114610c8e57600080fd5b50565b600081359050610ca081610c7a565b92915050565b60008060008060008060c08789031215610cc357610cc2610bc7565b5b6000610cd189828a01610bf4565b9650506020610ce289828a01610c20565b9550506040610cf389828a01610c20565b9450506060610d0489828a01610c5b565b9350506080610d1589828a01610c91565b92505060a0610d2689828a01610c91565b9150509295509295509295565b600080fd5b6000601f19601f8301169050919050565b7f4e487b7100000000000000000000000000000000000000000000000000000000600052604160045260246000fd5b610d8182610d38565b810181811067ffffffffffffffff82111715610da057610d9f610d49565b5b80604052505050565b6000610db3610bbd565b9050610dbf8282610d78565b919050565b600067ffffffffffffffff821115610ddf57610dde610d49565b5b602082029050602081019050919050565b600080fd5b6000610e0082610b81565b9050919050565b610e1081610df5565b8114610e1b57600080fd5b50565b600081359050610e2d81610e07565b92915050565b6000610e46610e4184610dc4565b610da9565b90508083825260208201905060208402830185811115610e6957610e68610df0565b5b835b81811015610e925780610e7e8882610e1e565b845260208401935050602081019050610e6b565b5050509392505050565b600082601f830112610eb157610eb0610d33565b5b8135610ec1848260208601610e33565b91505092915050565b600067ffffffffffffffff821115610ee557610ee4610d49565b5b602082029050602081019050919050565b6000610f09610f0484610eca565b610da9565b90508083825260208201905060208402830185811115610f2c57610f2b610df0565b5b835b81811015610f555780610f418882610c91565b845260208401935050602081019050610f2e565b5050509392505050565b600082601f830112610f7457610f73610d33565b5b8135610f84848260208601610ef6565b91505092915050565b600080fd5b600067ffffffffffffffff821115610fad57610fac610d49565b5b610fb682610d38565b9050602081019050919050565b82818337600083830152505050565b6000610fe5610fe084610f92565b610da9565b90508281526020810184848401111561100157611000610f8d565b5b61100c848285610fc3565b509392505050565b600082601f83011261102957611028610d33565b5b8135611039848260208601610fd2565b91505092915050565b6000806000806080858703121561105c5761105b610bc7565b5b600085013567ffffffffffffffff81111561107a57611079610bcc565b5b61108687828801610e9c565b945050602085013567ffffffffffffffff8111156110a7576110a6610bcc565b5b6110b387828801610f5f565b935050604085013567ffffffffffffffff8111156110d4576110d3610bcc565b5b6110e087828801610f5f565b925050606085013567ffffffffffffffff81111561110157611100610bcc565b5b61110d87828801611014565b91505092959194509250565b600082825260208201905092915050565b7f4f6e6c79206f776e657200000000000000000000000000000000000000000000600082015250565b6000611160600a83611119565b915061116b8261112a565b602082019050919050565b6000602082019050818103600083015261118f81611153565b9050919050565b61119f81610bd1565b82525050565b6111ae81610c35565b82525050565b6111bd81610c70565b82525050565b600060a0820190506111d86000830188611196565b6111e56020830187610b93565b6111f26040830186610b93565b6111ff60608301856111a5565b61120c60808301846111b4565b9695505050505050565b7f4e487b7100000000000000000000000000000000000000000000000000000000600052603260045260246000fd5b600081519050919050565b600082825260208201905092915050565b6000819050602082019050919050565b600061127c82610af7565b9050919050565b61128c81611271565b82525050565b600061129e8383611283565b60208301905092915050565b6000602082019050919050565b60006112c282611245565b6112cc8185611250565b93506112d783611261565b8060005b838110156113085781516112ef8882611292565b97506112fa836112aa565b9250506001810190506112db565b5085935050505092915050565b600081519050919050565b600082825260208201905092915050565b6000819050602082019050919050565b61134a81610c70565b82525050565b600061135c8383611341565b60208301905092915050565b6000602082019050919050565b600061138082611315565b61138a8185611320565b935061139583611331565b8060005b838110156113c65781516113ad8882611350565b97506113b883611368565b925050600181019050611399565b5085935050505092915050565b600081519050919050565b600082825260208201905092915050565b60005b8381101561140d5780820151818401526020810190506113f2565b60008484015250505050565b6000611424826113d3565b61142e81856113de565b935061143e8185602086016113ef565b61144781610d38565b840191505092915050565b60006080820190506114676000830187610b93565b818103602083015261147981866112b7565b9050818103604083015261148d8185611375565b905081810360608301526114a18184611419565b905095945050505050565b7f556e617574686f72697a65642063616c6c6261636b0000000000000000000000600082015250565b60006114e2601583611119565b91506114ed826114ac565b602082019050919050565b60006020820190508181036000830152611511816114d5565b9050919050565b7f4e487b7100000000000000000000000000000000000000000000000000000000600052601160045260246000fd5b600061155282610c70565b915061155d83610c70565b925082820190508082111561157557611574611518565b5b92915050565b60008151905061158a81610bdd565b92915050565b600061159b82610aab565b9050919050565b6115ab81611590565b81146115b657600080fd5b50565b6000815190506115c8816115a2565b92915050565b6000815190506115dd81610c44565b92915050565b6000815190506115f281610c7a565b92915050565b600080600080600060a0868803121561161457611613610bc7565b5b60006116228882890161157b565b9550506020611633888289016115b9565b9450506040611644888289016115b9565b9350506060611655888289016115ce565b9250506080611666888289016115e3565b9150509295509295909350565b7f417262697472616765206e6f742070726f66697461626c650000000000000000600082015250565b60006116a9601883611119565b91506116b482611673565b602082019050919050565b600060208201905081810360008301526116d88161169c565b9050919050565b60006116ea82610c70565b91506116f583610c70565b925082820390508181111561170d5761170c611518565b5b92915050565b61171c81610b81565b82525050565b61172b81610c35565b82525050565b61173a81610aab565b82525050565b610100820160008201516117576000850182611713565b50602082015161176a6020850182611713565b50604082015161177d6040850182611722565b5060608201516117906060850182611713565b5060808201516117a36080850182611341565b5060a08201516117b660a0850182611341565b5060c08201516117c960c0850182611341565b5060e08201516117dc60e0850182611731565b50505050565b6000610100820190506117f86000830184611740565b92915050565b60006020828403121561181457611813610bc7565b5b6000611822848285016115e3565b91505092915050565b60006040820190506118406000830185610b93565b61184d60208301846111b4565b9392505050565b600081905092915050565b600061186a826113d3565b6118748185611854565b93506118848185602086016113ef565b80840191505092915050565b600061189c828461185f565b915081905092915050565b6000602082840312156118bd576118bc610bc7565b5b60006118cb8482850161157b565b91505092915050565b7f5341000000000000000000000000000000000000000000000000000000000000600082015250565b600061190a600283611119565b9150611915826118d4565b602082019050919050565b60006020820190508181036000830152611939816118fd565b9050919050565b7f5354000000000000000000000000000000000000000000000000000000000000600082015250565b6000611976600283611119565b915061198182611940565b602082019050919050565b600060208201905081810360008301526119a581611969565b905091905056fea2646970667358221220ba2561fe3b3471fc7b1bb762839359555b89624c1a28a408ef9532a1ef9398b164736f6c63430008180033",
  "linkReferences": {},
  "deployedLinkReferences": {}
}